{
  "contractName": "MemoryToken",
  "abi": [
    {
      "inputs": [],
      "stateMutability": "nonpayable",
      "type": "constructor"
    },
    {
      "anonymous": false,
      "inputs": [
        {
          "indexed": true,
          "internalType": "address",
          "name": "owner",
          "type": "address"
        },
        {
          "indexed": true,
          "internalType": "address",
          "name": "approved",
          "type": "address"
        },
        {
          "indexed": true,
          "internalType": "uint256",
          "name": "tokenId",
          "type": "uint256"
        }
      ],
      "name": "Approval",
      "type": "event"
    },
    {
      "anonymous": false,
      "inputs": [
        {
          "indexed": true,
          "internalType": "address",
          "name": "owner",
          "type": "address"
        },
        {
          "indexed": true,
          "internalType": "address",
          "name": "operator",
          "type": "address"
        },
        {
          "indexed": false,
          "internalType": "bool",
          "name": "approved",
          "type": "bool"
        }
      ],
      "name": "ApprovalForAll",
      "type": "event"
    },
    {
      "anonymous": false,
      "inputs": [
        {
          "indexed": true,
          "internalType": "address",
          "name": "from",
          "type": "address"
        },
        {
          "indexed": true,
          "internalType": "address",
          "name": "to",
          "type": "address"
        },
        {
          "indexed": true,
          "internalType": "uint256",
          "name": "tokenId",
          "type": "uint256"
        }
      ],
      "name": "Transfer",
      "type": "event"
    },
    {
      "inputs": [
        {
          "internalType": "address",
          "name": "to",
          "type": "address"
        },
        {
          "internalType": "uint256",
          "name": "tokenId",
          "type": "uint256"
        }
      ],
      "name": "approve",
      "outputs": [],
      "stateMutability": "nonpayable",
      "type": "function"
    },
    {
      "inputs": [
        {
          "internalType": "address",
          "name": "owner",
          "type": "address"
        }
      ],
      "name": "balanceOf",
      "outputs": [
        {
          "internalType": "uint256",
          "name": "",
          "type": "uint256"
        }
      ],
      "stateMutability": "view",
      "type": "function"
    },
    {
      "inputs": [
        {
          "internalType": "uint256",
          "name": "tokenId",
          "type": "uint256"
        }
      ],
      "name": "getApproved",
      "outputs": [
        {
          "internalType": "address",
          "name": "",
          "type": "address"
        }
      ],
      "stateMutability": "view",
      "type": "function"
    },
    {
      "inputs": [
        {
          "internalType": "address",
          "name": "owner",
          "type": "address"
        },
        {
          "internalType": "address",
          "name": "operator",
          "type": "address"
        }
      ],
      "name": "isApprovedForAll",
      "outputs": [
        {
          "internalType": "bool",
          "name": "",
          "type": "bool"
        }
      ],
      "stateMutability": "view",
      "type": "function"
    },
    {
      "inputs": [],
      "name": "name",
      "outputs": [
        {
          "internalType": "string",
          "name": "",
          "type": "string"
        }
      ],
      "stateMutability": "view",
      "type": "function"
    },
    {
      "inputs": [
        {
          "internalType": "uint256",
          "name": "tokenId",
          "type": "uint256"
        }
      ],
      "name": "ownerOf",
      "outputs": [
        {
          "internalType": "address",
          "name": "",
          "type": "address"
        }
      ],
      "stateMutability": "view",
      "type": "function"
    },
    {
      "inputs": [
        {
          "internalType": "address",
          "name": "from",
          "type": "address"
        },
        {
          "internalType": "address",
          "name": "to",
          "type": "address"
        },
        {
          "internalType": "uint256",
          "name": "tokenId",
          "type": "uint256"
        }
      ],
      "name": "safeTransferFrom",
      "outputs": [],
      "stateMutability": "nonpayable",
      "type": "function"
    },
    {
      "inputs": [
        {
          "internalType": "address",
          "name": "from",
          "type": "address"
        },
        {
          "internalType": "address",
          "name": "to",
          "type": "address"
        },
        {
          "internalType": "uint256",
          "name": "tokenId",
          "type": "uint256"
        },
        {
          "internalType": "bytes",
          "name": "_data",
          "type": "bytes"
        }
      ],
      "name": "safeTransferFrom",
      "outputs": [],
      "stateMutability": "nonpayable",
      "type": "function"
    },
    {
      "inputs": [
        {
          "internalType": "address",
          "name": "operator",
          "type": "address"
        },
        {
          "internalType": "bool",
          "name": "approved",
          "type": "bool"
        }
      ],
      "name": "setApprovalForAll",
      "outputs": [],
      "stateMutability": "nonpayable",
      "type": "function"
    },
    {
      "inputs": [
        {
          "internalType": "bytes4",
          "name": "interfaceId",
          "type": "bytes4"
        }
      ],
      "name": "supportsInterface",
      "outputs": [
        {
          "internalType": "bool",
          "name": "",
          "type": "bool"
        }
      ],
      "stateMutability": "view",
      "type": "function"
    },
    {
      "inputs": [],
      "name": "symbol",
      "outputs": [
        {
          "internalType": "string",
          "name": "",
          "type": "string"
        }
      ],
      "stateMutability": "view",
      "type": "function"
    },
    {
      "inputs": [
        {
          "internalType": "uint256",
          "name": "tokenId",
          "type": "uint256"
        }
      ],
      "name": "tokenURI",
      "outputs": [
        {
          "internalType": "string",
          "name": "",
          "type": "string"
        }
      ],
      "stateMutability": "view",
      "type": "function"
    },
    {
      "inputs": [
        {
          "internalType": "address",
          "name": "from",
          "type": "address"
        },
        {
          "internalType": "address",
          "name": "to",
          "type": "address"
        },
        {
          "internalType": "uint256",
          "name": "tokenId",
          "type": "uint256"
        }
      ],
      "name": "transferFrom",
      "outputs": [],
      "stateMutability": "nonpayable",
      "type": "function"
    },
    {
      "inputs": [
        {
          "internalType": "address",
          "name": "wallet",
          "type": "address"
        },
        {
          "internalType": "string",
          "name": "_tokenURI",
          "type": "string"
        }
      ],
      "name": "mint",
      "outputs": [
        {
          "internalType": "uint256",
          "name": "",
          "type": "uint256"
        }
      ],
      "stateMutability": "nonpayable",
      "type": "function"
    }
  ],
  "bytecode": "0x60806040523480156200001157600080fd5b506040518060400160405280600c81526020017f4d656d6f727920546f6b656e00000000000000000000000000000000000000008152506040518060400160405280600281526020017f4d54000000000000000000000000000000000000000000000000000000000000815250816000908051906020019062000096929190620000b8565b508060019080519060200190620000af929190620000b8565b505050620001cd565b828054620000c69062000197565b90600052602060002090601f016020900481019282620000ea576000855562000136565b82601f106200010557805160ff191683800117855562000136565b8280016001018555821562000136579182015b828111156200013557825182559160200191906001019062000118565b5b50905062000145919062000149565b5090565b5b80821115620001645760008160009055506001016200014a565b5090565b7f4e487b7100000000000000000000000000000000000000000000000000000000600052602260045260246000fd5b60006002820490506001821680620001b057607f821691505b60208210811415620001c757620001c662000168565b5b50919050565b6126f380620001dd6000396000f3fe608060405234801561001057600080fd5b50600436106100ea5760003560e01c806370a082311161008c578063b88d4fde11610066578063b88d4fde1461025b578063c87b56dd14610277578063d0def521146102a7578063e985e9c5146102d7576100ea565b806370a08231146101f157806395d89b4114610221578063a22cb4651461023f576100ea565b8063095ea7b3116100c8578063095ea7b31461016d57806323b872dd1461018957806342842e0e146101a55780636352211e146101c1576100ea565b806301ffc9a7146100ef57806306fdde031461011f578063081812fc1461013d575b600080fd5b610109600480360381019061010491906115bf565b610307565b6040516101169190611607565b60405180910390f35b6101276103e9565b60405161013491906116bb565b60405180910390f35b61015760048036038101906101529190611713565b61047b565b6040516101649190611781565b60405180910390f35b610187600480360381019061018291906117c8565b610500565b005b6101a3600480360381019061019e9190611808565b610618565b005b6101bf60048036038101906101ba9190611808565b610678565b005b6101db60048036038101906101d69190611713565b610698565b6040516101e89190611781565b60405180910390f35b61020b6004803603810190610206919061185b565b61074a565b6040516102189190611897565b60405180910390f35b610229610802565b60405161023691906116bb565b60405180910390f35b610259600480360381019061025491906118de565b610894565b005b61027560048036038101906102709190611a53565b6108aa565b005b610291600480360381019061028c9190611713565b61090c565b60405161029e91906116bb565b60405180910390f35b6102c160048036038101906102bc9190611b77565b610a5e565b6040516102ce9190611897565b60405180910390f35b6102f160048036038101906102ec9190611bd3565b610a66565b6040516102fe9190611607565b60405180910390f35b60007f80ac58cd000000000000000000000000000000000000000000000000000000007bffffffffffffffffffffffffffffffffffffffffffffffffffffffff1916827bffffffffffffffffffffffffffffffffffffffffffffffffffffffff191614806103d257507f5b5e139f000000000000000000000000000000000000000000000000000000007bffffffffffffffffffffffffffffffffffffffffffffffffffffffff1916827bffffffffffffffffffffffffffffffffffffffffffffffffffffffff1916145b806103e257506103e182610afa565b5b9050919050565b6060600080546103f890611c42565b80601f016020809104026020016040519081016040528092919081815260200182805461042490611c42565b80156104715780601f1061044657610100808354040283529160200191610471565b820191906000526020600020905b81548152906001019060200180831161045457829003601f168201915b5050505050905090565b600061048682610b64565b6104c5576040517f08c379a00000000000000000000000000000000000000000000000000000000081526004016104bc90611ce6565b60405180910390fd5b6004600083815260200190815260200160002060009054906101000a900473ffffffffffffffffffffffffffffffffffffffff169050919050565b600061050b82610698565b90508073ffffffffffffffffffffffffffffffffffffffff168373ffffffffffffffffffffffffffffffffffffffff16141561057c576040517f08c379a000000000000000000000000000000000000000000000000000000000815260040161057390611d78565b60405180910390fd5b8073ffffffffffffffffffffffffffffffffffffffff1661059b610bd0565b73ffffffffffffffffffffffffffffffffffffffff1614806105ca57506105c9816105c4610bd0565b610a66565b5b610609576040517f08c379a000000000000000000000000000000000000000000000000000000000815260040161060090611e0a565b60405180910390fd5b6106138383610bd8565b505050565b610629610623610bd0565b82610c91565b610668576040517f08c379a000000000000000000000000000000000000000000000000000000000815260040161065f90611e9c565b60405180910390fd5b610673838383610d6f565b505050565b610693838383604051806020016040528060008152506108aa565b505050565b6000806002600084815260200190815260200160002060009054906101000a900473ffffffffffffffffffffffffffffffffffffffff169050600073ffffffffffffffffffffffffffffffffffffffff168173ffffffffffffffffffffffffffffffffffffffff161415610741576040517f08c379a000000000000000000000000000000000000000000000000000000000815260040161073890611f2e565b60405180910390fd5b80915050919050565b60008073ffffffffffffffffffffffffffffffffffffffff168273ffffffffffffffffffffffffffffffffffffffff1614156107bb576040517f08c379a00000000000000000000000000000000000000000000000000000000081526004016107b290611fc0565b60405180910390fd5b600360008373ffffffffffffffffffffffffffffffffffffffff1673ffffffffffffffffffffffffffffffffffffffff168152602001908152602001600020549050919050565b60606001805461081190611c42565b80601f016020809104026020016040519081016040528092919081815260200182805461083d90611c42565b801561088a5780601f1061085f5761010080835404028352916020019161088a565b820191906000526020600020905b81548152906001019060200180831161086d57829003601f168201915b5050505050905090565b6108a661089f610bd0565b8383610fcb565b5050565b6108bb6108b5610bd0565b83610c91565b6108fa576040517f08c379a00000000000000000000000000000000000000000000000000000000081526004016108f190611e9c565b60405180910390fd5b61090684848484611138565b50505050565b606061091782610b64565b610956576040517f08c379a000000000000000000000000000000000000000000000000000000000815260040161094d90612052565b60405180910390fd5b600060066000848152602001908152602001600020805461097690611c42565b80601f01602080910402602001604051908101604052809291908181526020018280546109a290611c42565b80156109ef5780601f106109c4576101008083540402835291602001916109ef565b820191906000526020600020905b8154815290600101906020018083116109d257829003601f168201915b505050505090506000610a00611194565b9050600081511415610a16578192505050610a59565b600082511115610a4b578082604051602001610a339291906120ae565b60405160208183030381529060405292505050610a59565b610a54846111ab565b925050505b919050565b600092915050565b6000600560008473ffffffffffffffffffffffffffffffffffffffff1673ffffffffffffffffffffffffffffffffffffffff16815260200190815260200160002060008373ffffffffffffffffffffffffffffffffffffffff1673ffffffffffffffffffffffffffffffffffffffff16815260200190815260200160002060009054906101000a900460ff16905092915050565b60007f01ffc9a7000000000000000000000000000000000000000000000000000000007bffffffffffffffffffffffffffffffffffffffffffffffffffffffff1916827bffffffffffffffffffffffffffffffffffffffffffffffffffffffff1916149050919050565b60008073ffffffffffffffffffffffffffffffffffffffff166002600084815260200190815260200160002060009054906101000a900473ffffffffffffffffffffffffffffffffffffffff1673ffffffffffffffffffffffffffffffffffffffff1614159050919050565b600033905090565b816004600083815260200190815260200160002060006101000a81548173ffffffffffffffffffffffffffffffffffffffff021916908373ffffffffffffffffffffffffffffffffffffffff160217905550808273ffffffffffffffffffffffffffffffffffffffff16610c4b83610698565b73ffffffffffffffffffffffffffffffffffffffff167f8c5be1e5ebec7d5bd14f71427d1e84f3dd0314c0f7b2291e5b200ac8c7c3b92560405160405180910390a45050565b6000610c9c82610b64565b610cdb576040517f08c379a0000000000000000000000000000000000000000000000000000000008152600401610cd290612144565b60405180910390fd5b6000610ce683610698565b90508073ffffffffffffffffffffffffffffffffffffffff168473ffffffffffffffffffffffffffffffffffffffff161480610d5557508373ffffffffffffffffffffffffffffffffffffffff16610d3d8461047b565b73ffffffffffffffffffffffffffffffffffffffff16145b80610d665750610d658185610a66565b5b91505092915050565b8273ffffffffffffffffffffffffffffffffffffffff16610d8f82610698565b73ffffffffffffffffffffffffffffffffffffffff1614610de5576040517f08c379a0000000000000000000000000000000000000000000000000000000008152600401610ddc906121d6565b60405180910390fd5b600073ffffffffffffffffffffffffffffffffffffffff168273ffffffffffffffffffffffffffffffffffffffff161415610e55576040517f08c379a0000000000000000000000000000000000000000000000000000000008152600401610e4c90612268565b60405180910390fd5b610e60838383611252565b610e6b600082610bd8565b6001600360008573ffffffffffffffffffffffffffffffffffffffff1673ffffffffffffffffffffffffffffffffffffffff1681526020019081526020016000206000828254610ebb91906122b7565b925050819055506001600360008473ffffffffffffffffffffffffffffffffffffffff1673ffffffffffffffffffffffffffffffffffffffff1681526020019081526020016000206000828254610f1291906122eb565b92505081905550816002600083815260200190815260200160002060006101000a81548173ffffffffffffffffffffffffffffffffffffffff021916908373ffffffffffffffffffffffffffffffffffffffff160217905550808273ffffffffffffffffffffffffffffffffffffffff168473ffffffffffffffffffffffffffffffffffffffff167fddf252ad1be2c89b69c2b068fc378daa952ba7f163c4a11628f55a4df523b3ef60405160405180910390a4505050565b8173ffffffffffffffffffffffffffffffffffffffff168373ffffffffffffffffffffffffffffffffffffffff16141561103a576040517f08c379a00000000000000000000000000000000000000000000000000000000081526004016110319061238d565b60405180910390fd5b80600560008573ffffffffffffffffffffffffffffffffffffffff1673ffffffffffffffffffffffffffffffffffffffff16815260200190815260200160002060008473ffffffffffffffffffffffffffffffffffffffff1673ffffffffffffffffffffffffffffffffffffffff16815260200190815260200160002060006101000a81548160ff0219169083151502179055508173ffffffffffffffffffffffffffffffffffffffff168373ffffffffffffffffffffffffffffffffffffffff167f17307eab39ab6107e8899845ad3d59bd9653f200f220920489ca2b5937696c318360405161112b9190611607565b60405180910390a3505050565b611143848484610d6f565b61114f84848484611257565b61118e576040517f08c379a00000000000000000000000000000000000000000000000000000000081526004016111859061241f565b60405180910390fd5b50505050565b606060405180602001604052806000815250905090565b60606111b682610b64565b6111f5576040517f08c379a00000000000000000000000000000000000000000000000000000000081526004016111ec906124b1565b60405180910390fd5b60006111ff611194565b9050600081511161121f576040518060200160405280600081525061124a565b80611229846113df565b60405160200161123a9291906120ae565b6040516020818303038152906040525b915050919050565b505050565b60006112788473ffffffffffffffffffffffffffffffffffffffff16611540565b156113d2578373ffffffffffffffffffffffffffffffffffffffff1663150b7a026112a1610bd0565b8786866040518563ffffffff1660e01b81526004016112c39493929190612526565b6020604051808303816000875af19250505080156112ff57506040513d601f19601f820116820180604052508101906112fc9190612587565b60015b611382573d806000811461132f576040519150601f19603f3d011682016040523d82523d6000602084013e611334565b606091505b5060008151141561137a576040517f08c379a00000000000000000000000000000000000000000000000000000000081526004016113719061241f565b60405180910390fd5b805181602001fd5b63150b7a0260e01b7bffffffffffffffffffffffffffffffffffffffffffffffffffffffff1916817bffffffffffffffffffffffffffffffffffffffffffffffffffffffff1916149150506113d7565b600190505b949350505050565b60606000821415611427576040518060400160405280600181526020017f3000000000000000000000000000000000000000000000000000000000000000815250905061153b565b600082905060005b60008214611459578080611442906125b4565b915050600a82611452919061262c565b915061142f565b60008167ffffffffffffffff81111561147557611474611928565b5b6040519080825280601f01601f1916602001820160405280156114a75781602001600182028036833780820191505090505b5090505b60008514611534576001826114c091906122b7565b9150600a856114cf919061265d565b60306114db91906122eb565b60f81b8183815181106114f1576114f061268e565b5b60200101907effffffffffffffffffffffffffffffffffffffffffffffffffffffffffffff1916908160001a905350600a8561152d919061262c565b94506114ab565b8093505050505b919050565b600080823b905060008111915050919050565b6000604051905090565b600080fd5b600080fd5b60007fffffffff0000000000000000000000000000000000000000000000000000000082169050919050565b61159c81611567565b81146115a757600080fd5b50565b6000813590506115b981611593565b92915050565b6000602082840312156115d5576115d461155d565b5b60006115e3848285016115aa565b91505092915050565b60008115159050919050565b611601816115ec565b82525050565b600060208201905061161c60008301846115f8565b92915050565b600081519050919050565b600082825260208201905092915050565b60005b8381101561165c578082015181840152602081019050611641565b8381111561166b576000848401525b50505050565b6000601f19601f8301169050919050565b600061168d82611622565b611697818561162d565b93506116a781856020860161163e565b6116b081611671565b840191505092915050565b600060208201905081810360008301526116d58184611682565b905092915050565b6000819050919050565b6116f0816116dd565b81146116fb57600080fd5b50565b60008135905061170d816116e7565b92915050565b6000602082840312156117295761172861155d565b5b6000611737848285016116fe565b91505092915050565b600073ffffffffffffffffffffffffffffffffffffffff82169050919050565b600061176b82611740565b9050919050565b61177b81611760565b82525050565b60006020820190506117966000830184611772565b92915050565b6117a581611760565b81146117b057600080fd5b50565b6000813590506117c28161179c565b92915050565b600080604083850312156117df576117de61155d565b5b60006117ed858286016117b3565b92505060206117fe858286016116fe565b9150509250929050565b6000806000606084860312156118215761182061155d565b5b600061182f868287016117b3565b9350506020611840868287016117b3565b9250506040611851868287016116fe565b9150509250925092565b6000602082840312156118715761187061155d565b5b600061187f848285016117b3565b91505092915050565b611891816116dd565b82525050565b60006020820190506118ac6000830184611888565b92915050565b6118bb816115ec565b81146118c657600080fd5b50565b6000813590506118d8816118b2565b92915050565b600080604083850312156118f5576118f461155d565b5b6000611903858286016117b3565b9250506020611914858286016118c9565b9150509250929050565b600080fd5b600080fd5b7f4e487b7100000000000000000000000000000000000000000000000000000000600052604160045260246000fd5b61196082611671565b810181811067ffffffffffffffff8211171561197f5761197e611928565b5b80604052505050565b6000611992611553565b905061199e8282611957565b919050565b600067ffffffffffffffff8211156119be576119bd611928565b5b6119c782611671565b9050602081019050919050565b82818337600083830152505050565b60006119f66119f1846119a3565b611988565b905082815260208101848484011115611a1257611a11611923565b5b611a1d8482856119d4565b509392505050565b600082601f830112611a3a57611a3961191e565b5b8135611a4a8482602086016119e3565b91505092915050565b60008060008060808587031215611a6d57611a6c61155d565b5b6000611a7b878288016117b3565b9450506020611a8c878288016117b3565b9350506040611a9d878288016116fe565b925050606085013567ffffffffffffffff811115611abe57611abd611562565b5b611aca87828801611a25565b91505092959194509250565b600067ffffffffffffffff821115611af157611af0611928565b5b611afa82611671565b9050602081019050919050565b6000611b1a611b1584611ad6565b611988565b905082815260208101848484011115611b3657611b35611923565b5b611b418482856119d4565b509392505050565b600082601f830112611b5e57611b5d61191e565b5b8135611b6e848260208601611b07565b91505092915050565b60008060408385031215611b8e57611b8d61155d565b5b6000611b9c858286016117b3565b925050602083013567ffffffffffffffff811115611bbd57611bbc611562565b5b611bc985828601611b49565b9150509250929050565b60008060408385031215611bea57611be961155d565b5b6000611bf8858286016117b3565b9250506020611c09858286016117b3565b9150509250929050565b7f4e487b7100000000000000000000000000000000000000000000000000000000600052602260045260246000fd5b60006002820490506001821680611c5a57607f821691505b60208210811415611c6e57611c6d611c13565b5b50919050565b7f4552433732313a20617070726f76656420717565727920666f72206e6f6e657860008201527f697374656e7420746f6b656e0000000000000000000000000000000000000000602082015250565b6000611cd0602c8361162d565b9150611cdb82611c74565b604082019050919050565b60006020820190508181036000830152611cff81611cc3565b9050919050565b7f4552433732313a20617070726f76616c20746f2063757272656e74206f776e6560008201527f7200000000000000000000000000000000000000000000000000000000000000602082015250565b6000611d6260218361162d565b9150611d6d82611d06565b604082019050919050565b60006020820190508181036000830152611d9181611d55565b9050919050565b7f4552433732313a20617070726f76652063616c6c6572206973206e6f74206f7760008201527f6e6572206e6f7220617070726f76656420666f7220616c6c0000000000000000602082015250565b6000611df460388361162d565b9150611dff82611d98565b604082019050919050565b60006020820190508181036000830152611e2381611de7565b9050919050565b7f4552433732313a207472616e736665722063616c6c6572206973206e6f74206f60008201527f776e6572206e6f7220617070726f766564000000000000000000000000000000602082015250565b6000611e8660318361162d565b9150611e9182611e2a565b604082019050919050565b60006020820190508181036000830152611eb581611e79565b9050919050565b7f4552433732313a206f776e657220717565727920666f72206e6f6e657869737460008201527f656e7420746f6b656e0000000000000000000000000000000000000000000000602082015250565b6000611f1860298361162d565b9150611f2382611ebc565b604082019050919050565b60006020820190508181036000830152611f4781611f0b565b9050919050565b7f4552433732313a2062616c616e636520717565727920666f7220746865207a6560008201527f726f206164647265737300000000000000000000000000000000000000000000602082015250565b6000611faa602a8361162d565b9150611fb582611f4e565b604082019050919050565b60006020820190508181036000830152611fd981611f9d565b9050919050565b7f45524337323155524953746f726167653a2055524920717565727920666f722060008201527f6e6f6e6578697374656e7420746f6b656e000000000000000000000000000000602082015250565b600061203c60318361162d565b915061204782611fe0565b604082019050919050565b6000602082019050818103600083015261206b8161202f565b9050919050565b600081905092915050565b600061208882611622565b6120928185612072565b93506120a281856020860161163e565b80840191505092915050565b60006120ba828561207d565b91506120c6828461207d565b91508190509392505050565b7f4552433732313a206f70657261746f7220717565727920666f72206e6f6e657860008201527f697374656e7420746f6b656e0000000000000000000000000000000000000000602082015250565b600061212e602c8361162d565b9150612139826120d2565b604082019050919050565b6000602082019050818103600083015261215d81612121565b9050919050565b7f4552433732313a207472616e73666572206f6620746f6b656e2074686174206960008201527f73206e6f74206f776e0000000000000000000000000000000000000000000000602082015250565b60006121c060298361162d565b91506121cb82612164565b604082019050919050565b600060208201905081810360008301526121ef816121b3565b9050919050565b7f4552433732313a207472616e7366657220746f20746865207a65726f2061646460008201527f7265737300000000000000000000000000000000000000000000000000000000602082015250565b600061225260248361162d565b915061225d826121f6565b604082019050919050565b6000602082019050818103600083015261228181612245565b9050919050565b7f4e487b7100000000000000000000000000000000000000000000000000000000600052601160045260246000fd5b60006122c2826116dd565b91506122cd836116dd565b9250828210156122e0576122df612288565b5b828203905092915050565b60006122f6826116dd565b9150612301836116dd565b9250827fffffffffffffffffffffffffffffffffffffffffffffffffffffffffffffffff0382111561233657612335612288565b5b828201905092915050565b7f4552433732313a20617070726f766520746f2063616c6c657200000000000000600082015250565b600061237760198361162d565b915061238282612341565b602082019050919050565b600060208201905081810360008301526123a68161236a565b9050919050565b7f4552433732313a207472616e7366657220746f206e6f6e20455243373231526560008201527f63656976657220696d706c656d656e7465720000000000000000000000000000602082015250565b600061240960328361162d565b9150612414826123ad565b604082019050919050565b60006020820190508181036000830152612438816123fc565b9050919050565b7f4552433732314d657461646174613a2055524920717565727920666f72206e6f60008201527f6e6578697374656e7420746f6b656e0000000000000000000000000000000000602082015250565b600061249b602f8361162d565b91506124a68261243f565b604082019050919050565b600060208201905081810360008301526124ca8161248e565b9050919050565b600081519050919050565b600082825260208201905092915050565b60006124f8826124d1565b61250281856124dc565b935061251281856020860161163e565b61251b81611671565b840191505092915050565b600060808201905061253b6000830187611772565b6125486020830186611772565b6125556040830185611888565b818103606083015261256781846124ed565b905095945050505050565b60008151905061258181611593565b92915050565b60006020828403121561259d5761259c61155d565b5b60006125ab84828501612572565b91505092915050565b60006125bf826116dd565b91507fffffffffffffffffffffffffffffffffffffffffffffffffffffffffffffffff8214156125f2576125f1612288565b5b600182019050919050565b7f4e487b7100000000000000000000000000000000000000000000000000000000600052601260045260246000fd5b6000612637826116dd565b9150612642836116dd565b925082612652576126516125fd565b5b828204905092915050565b6000612668826116dd565b9150612673836116dd565b925082612683576126826125fd565b5b828206905092915050565b7f4e487b7100000000000000000000000000000000000000000000000000000000600052603260045260246000fdfea2646970667358221220ec5574b8baa2dcfa6c4415566882d7a55d8ac05d3986cbde2d659e07707c1d7b64736f6c634300080a0033",
  "immutableReferences": {},
  "source": "pragma solidity ^0.8.10;\r\n\r\nimport \"@openzeppelin/contracts/token/ERC721/extensions/ERC721URIStorage.sol\";\r\nimport \"@openzeppelin/contracts/utils/Counters.sol\";\r\n\r\ncontract MemoryToken is ERC721URIStorage {\r\n\r\n    using Counters for Counters.Counter;\r\n\r\n    Counters.Counter private _tokenIdCounter;\r\n\r\n    constructor() ERC721(\"Memory Token\", \"MT\") {\r\n\r\n    }\r\n\r\n    function mint(address wallet, string memory _tokenURI) public returns(uint256) {\r\n\r\n    }\r\n}",
  "sourcePath": "C:\\Users\\marlo\\Desktop\\ntf-test\\contracts\\MemoryToken.sol",
  "compiler": {
    "name": "solc",
    "version": "0.8.10+commit.fc410830.Emscripten.clang"
  },
  "schemaVersion": "3.4.4",
  "updatedAt": "2022-01-04T06:53:26.606Z",
  "devdoc": {
    "kind": "dev",
    "methods": {
      "approve(address,uint256)": {
        "details": "See {IERC721-approve}."
      },
      "balanceOf(address)": {
        "details": "See {IERC721-balanceOf}."
      },
      "getApproved(uint256)": {
        "details": "See {IERC721-getApproved}."
      },
      "isApprovedForAll(address,address)": {
        "details": "See {IERC721-isApprovedForAll}."
      },
      "name()": {
        "details": "See {IERC721Metadata-name}."
      },
      "ownerOf(uint256)": {
        "details": "See {IERC721-ownerOf}."
      },
      "safeTransferFrom(address,address,uint256)": {
        "details": "See {IERC721-safeTransferFrom}."
      },
      "safeTransferFrom(address,address,uint256,bytes)": {
        "details": "See {IERC721-safeTransferFrom}."
      },
      "setApprovalForAll(address,bool)": {
        "details": "See {IERC721-setApprovalForAll}."
      },
      "supportsInterface(bytes4)": {
        "details": "See {IERC165-supportsInterface}."
      },
      "symbol()": {
        "details": "See {IERC721Metadata-symbol}."
      },
      "tokenURI(uint256)": {
        "details": "See {IERC721Metadata-tokenURI}."
      },
      "transferFrom(address,address,uint256)": {
        "details": "See {IERC721-transferFrom}."
      }
    },
    "version": 1
  },
  "userdoc": {
    "kind": "user",
    "methods": {},
    "version": 1
  }
}